{
  "_format": "hh-sol-artifact-1",
  "contractName": "ParsingNFTData",
  "sourceName": "contracts/ParsingNFTData.sol",
  "abi": [
    {
      "inputs": [
        {
          "internalType": "address",
          "name": "holder",
          "type": "address"
        },
        {
          "internalType": "address[]",
          "name": "erc1155s",
          "type": "address[]"
        },
        {
          "internalType": "uint256[][]",
          "name": "tokenIds",
          "type": "uint256[][]"
        }
      ],
      "name": "getERC1155BalanceList_OneHolder",
      "outputs": [
        {
          "internalType": "uint256[][]",
          "name": "balances",
          "type": "uint256[][]"
        }
      ],
      "stateMutability": "view",
      "type": "function"
    },
    {
      "inputs": [
        {
          "internalType": "address",
          "name": "erc1155",
          "type": "address"
        },
        {
          "internalType": "address[]",
          "name": "holders",
          "type": "address[]"
        },
        {
          "internalType": "uint256[][]",
          "name": "tokenIds",
          "type": "uint256[][]"
        }
      ],
      "name": "getERC1155BalanceList_OneToken",
      "outputs": [
        {
          "internalType": "uint256[][]",
          "name": "balances",
          "type": "uint256[][]"
        }
      ],
      "stateMutability": "view",
      "type": "function"
    },
    {
      "inputs": [
        {
          "internalType": "address",
          "name": "holder",
          "type": "address"
        },
        {
          "internalType": "address[]",
          "name": "",
          "type": "address[]"
        }
      ],
      "name": "getERC20BalanceList_OneHolder",
      "outputs": [
        {
          "internalType": "uint256[]",
          "name": "balances",
          "type": "uint256[]"
        }
      ],
      "stateMutability": "view",
      "type": "function"
    },
    {
      "inputs": [
        {
          "internalType": "address",
          "name": "erc20",
          "type": "address"
        },
        {
          "internalType": "address[]",
          "name": "",
          "type": "address[]"
        }
      ],
      "name": "getERC20BalanceList_OneToken",
      "outputs": [
        {
          "internalType": "uint256[]",
          "name": "balances",
          "type": "uint256[]"
        }
      ],
      "stateMutability": "view",
      "type": "function"
    },
    {
      "inputs": [
        {
          "internalType": "address",
          "name": "holder",
          "type": "address"
        },
        {
          "internalType": "address[]",
          "name": "",
          "type": "address[]"
        }
      ],
      "name": "getERC721BalanceList_OneHolder",
      "outputs": [
        {
          "internalType": "uint256[]",
          "name": "balances",
          "type": "uint256[]"
        }
      ],
      "stateMutability": "view",
      "type": "function"
    },
    {
      "inputs": [
        {
          "internalType": "address",
          "name": "nft",
          "type": "address"
        },
        {
          "internalType": "address[]",
          "name": "",
          "type": "address[]"
        }
      ],
      "name": "getERC721BalanceList_OneToken",
      "outputs": [
        {
          "internalType": "uint256[]",
          "name": "balances",
          "type": "uint256[]"
        }
      ],
      "stateMutability": "view",
      "type": "function"
    },
    {
      "inputs": [
        {
          "internalType": "address",
          "name": "nft",
          "type": "address"
        },
        {
          "internalType": "uint256[]",
          "name": "",
          "type": "uint256[]"
        }
      ],
      "name": "getERC721HolderList",
      "outputs": [
        {
          "internalType": "address[]",
          "name": "holders",
          "type": "address[]"
        }
      ],
      "stateMutability": "view",
      "type": "function"
    }
  ],
  "bytecode": "0x608060405234801561001057600080fd5b50610a4c806100206000396000f3fe608060405234801561001057600080fd5b506004361061007d5760003560e01c806362219ad91161005b57806362219ad9146100be5780637c97541b146100de578063e12aa8dd146100ab578063e1b939e4146100fe57600080fd5b80632605fd93146100825780632f685af614610082578063539c59cd146100ab575b600080fd5b610095610090366004610782565b610111565b6040516100a291906107d5565b60405180910390f35b6100956100b9366004610782565b610124565b6100d16100cc366004610819565b61012f565b6040516100a2919061089a565b6100f16100ec366004610782565b61039a565b6040516100a29190610924565b6100d161010c366004610819565b610400565b606061011c8461065b565b949350505050565b606061011c846106be565b6060838281146101795760405162461bcd60e51b815260206004820152601060248201526f13115391d51217d393d517d15455505360821b60448201526064015b60405180910390fd5b8067ffffffffffffffff81111561019257610192610965565b6040519080825280602002602001820160405280156101c557816020015b60608152602001906001900390816101b05790505b50915060005b8181101561038f5760008585838181106101e7576101e761097b565b90506020028101906101f99190610991565b905090508067ffffffffffffffff81111561021657610216610965565b60405190808252806020026020018201604052801561023f578160200160208202803683370190505b508483815181106102525761025261097b565b602002602001018190525060005b818110156103855788888481811061027a5761027a61097b565b905060200201602081019061028f91906109db565b6001600160a01b031662fdd58e8b8989878181106102af576102af61097b565b90506020028101906102c19190610991565b858181106102d1576102d161097b565b6040516001600160e01b031960e087901b1681526001600160a01b0390941660048501526020029190910135602483015250604401602060405180830381865afa158015610323573d6000803e3d6000fd5b505050506040513d601f19601f8201168201806040525081019061034791906109fd565b8584815181106103595761035961097b565b602002602001015182815181106103725761037261097b565b6020908102919091010152600101610260565b50506001016101cb565b505095945050505050565b604080516044358082526020908102808301820190935290916331a9108f60e11b91908101905b818110156103f6578260005260208160440160043760206000602460008a5afa156103ee57600051818501525b6020016103c1565b5050509392505050565b6060838281146104455760405162461bcd60e51b815260206004820152601060248201526f13115391d51217d393d517d15455505360821b6044820152606401610170565b8067ffffffffffffffff81111561045e5761045e610965565b60405190808252806020026020018201604052801561049157816020015b606081526020019060019003908161047c5790505b50915060005b8181101561038f5760008585838181106104b3576104b361097b565b90506020028101906104c59190610991565b905090508067ffffffffffffffff8111156104e2576104e2610965565b60405190808252806020026020018201604052801561050b578160200160208202803683370190505b5084838151811061051e5761051e61097b565b602002602001018190525060005b8181101561065157896001600160a01b031662fdd58e8a8a868181106105545761055461097b565b905060200201602081019061056991906109db565b89898781811061057b5761057b61097b565b905060200281019061058d9190610991565b8581811061059d5761059d61097b565b6040516001600160e01b031960e087901b1681526001600160a01b0390941660048501526020029190910135602483015250604401602060405180830381865afa1580156105ef573d6000803e3d6000fd5b505050506040513d601f19601f8201168201806040525081019061061391906109fd565b8584815181106106255761062561097b565b6020026020010151828151811061063e5761063e61097b565b602090810291909101015260010161052c565b5050600101610497565b604080516044358082526020908102808301820190935290916370a0823160e01b91908101905b818110156106b6578260005284600452602060006024600084604401355afa156106ae57600051818501525b602001610682565b505050919050565b604080516044358082526020908102808301820190935290916370a0823160e01b91908101905b818110156106b657826000526020816044016004376020600060246000885afa1561071257600051818501525b6020016106e5565b80356001600160a01b038116811461073157600080fd5b919050565b60008083601f84011261074857600080fd5b50813567ffffffffffffffff81111561076057600080fd5b6020830191508360208260051b850101111561077b57600080fd5b9250929050565b60008060006040848603121561079757600080fd5b6107a08461071a565b9250602084013567ffffffffffffffff8111156107bc57600080fd5b6107c886828701610736565b9497909650939450505050565b6020808252825182820181905260009190848201906040850190845b8181101561080d578351835292840192918401916001016107f1565b50909695505050505050565b60008060008060006060868803121561083157600080fd5b61083a8661071a565b9450602086013567ffffffffffffffff8082111561085757600080fd5b61086389838a01610736565b9096509450604088013591508082111561087c57600080fd5b5061088988828901610736565b969995985093965092949392505050565b6000602080830181845280855180835260408601915060408160051b87010192508387016000805b8381101561091657888603603f19018552825180518088529088019088880190845b818110156109005783518352928a0192918a01916001016108e4565b50909750505093860193918601916001016108c2565b509398975050505050505050565b6020808252825182820181905260009190848201906040850190845b8181101561080d5783516001600160a01b031683529284019291840191600101610940565b634e487b7160e01b600052604160045260246000fd5b634e487b7160e01b600052603260045260246000fd5b6000808335601e198436030181126109a857600080fd5b83018035915067ffffffffffffffff8211156109c357600080fd5b6020019150600581901b360382131561077b57600080fd5b6000602082840312156109ed57600080fd5b6109f68261071a565b9392505050565b600060208284031215610a0f57600080fd5b505191905056fea2646970667358221220a8ce2d5aaa77559a4a2d0638481d088bc60e3d8023300dd32920b84631c09ba664736f6c63430008110033",
  "linkReferences": {},
  "deployedLinkReferences": {}
}